:020000040800F2
:10000000B00B0020490100082D1B00088D160008C8
:10001000091800086D0E000885290008000000007E
:100020000000000000000000000000003123000874
:10003000A30F0008000000000F220008852400081C
:100040006301000863010008630100086301000800
:1000500063010008630100086301000863010008F0
:1000600063010008630100086301000863010008E0
:1000700063010008630100086301000863010008D0
:1000800063010008630100086301000863010008C0
:1000900063010008630100086301000863010008B0
:1000A00063010008630100086301000863010008A0
:1000B00063010008D92400086D25000863010008C9
:1000C0006301000863010008630100086301000880
:1000D00063010008630100083D2700087927000834
:1000E0001913000863010008630100086301000898
:1000F0006301000863010008630100086301000850
:10010000630100086301000863010008630100083F
:10011000630100086301000863010008630100082F
:10012000630100086301000863010008630100081F
:10013000DFF810D000F0F4FB00480047E935000874
:10014000AFF30080B00B0020064880470648004708
:10015000FEE7FEE7FEE7FEE7FEE7FEE7FEE7FEE777
:10016000FEE7FEE7892400083101000810B50022EF
:1001700000E0521C835C8C5CA34201D1002BF8D1BF
:10018000D8B2E1B2401A10BDF0B480EA0102D40F37
:100190004200B2EB410F02D20246084611464A0025
:1001A00042D0C30DDDB2C1F3C752AD1A202D35DAEE
:1001B000C1F3160141F4000204B15242C5F1200618
:1001C00002FA06F12A411044B3EBD05F23D0C4B148
:1001D000012DA0EBC35009DCF0BC4FF0004202EA55
:1001E000C352DBB200F5000000F0F7BA400000F1A6
:1001F000807000EBC350A0F1807040EAD1704900DC
:1002000009E0490841EAC071A0EBC35000F50000C5
:10021000400800EBC350F0BC00F0D6BA61420122A6
:1002200002EB4101001BF6E7F0BC704781F0004192
:10023000AAE780F00040A7E780EA010210B502F0CB
:100240000043400022D04A001FD0010E01EB126192
:10025000C0F35600C2F3560240F4000042F400021C
:10026000A0FB022000047F39140400D0401C50EA97
:10027000124001D44000491EC2B20C0604EBD0105B
:10028000401C4008802A02D003E0002010BD20F06E
:100290000100002900DA0020184310BD30B480EAC4
:1002A000010202F0004530F0004221F0004013D07E
:1002B00090B1C30DD40DC2F31601C0F31600E41AB9
:1002C00041F4000140F400027D34914201D3641CEA
:1002D00000E04900002C02DA30BC002070474FF4E7
:1002E00000000023914201D3891A034340084FEADA
:1002F0004101F7D151B1914202D14FF0004105E0E7
:1003000002D24FF0010101E06FF0010103EBC45094
:10031000284430BC00F058BA2DE9FE4F804681EAEF
:100320000300C00F0C46009021F0004123F000456F
:10033000B8EB0200A94105D24046214690461C4632
:100340000B46024623F00040104347D0270DC7F369
:100350000A00C3F30A510290401A019040286BDA58
:10036000C3F3130040F4801B0098924620B1002391
:10037000D2EB030A63EB0B0B01985946C0F1400224
:10038000504600F0F0F906460D4650465946019A8F
:1003900000F008FA10EB08006141002487EA1152CE
:1003A00084EAE7731A4340D0009A62B3019A012AA3
:1003B0004FEA075215DC001B61EB02014FF00042CF
:1003C00002EA0752CDE90042001C41F58011324695
:1003D0002B4600F03FFA03B0BDE8F08F40462146BF
:1003E000F9E7001B61EB0201001C41F580130018C6
:1003F0005B412018A2F5001747EB030140EAD570D6
:10040000B6196D4111E06D084FEA360645EAC07530
:100410004FEA0752001B61EB0201001C41F58011FD
:1004200049084FEA30000019514132462B4603B0CB
:10043000BDE8F04F00F0FFB9009801224000002312
:10044000D0EB020263EBE073009821464FEAE074C0
:10045000B8EB000061EB0401E9E783F000435BE7E0
:1004600081F0004158E72DE9FE4F81EA030404F0D2
:10047000004421F0004100944FF0000B23F00043B2
:1004800050EA01045ED052EA03045BD0C3F30A547D
:10049000C1F30A552C44A4F2F3340194A0FB025496
:1004A000C1F3130141F48011C3F3130343F4801328
:1004B00001FB024400FB034E840A970A44EA81547C
:1004C00047EA8357A4FB076802958D0A05FB078559
:1004D0004FEA932C04FB0C542705029D4FEA065863
:1004E00047EA1637B5EB08056EEB070C870E920E40
:1004F00047EA811742EA8312A7FB0201B6EB0B0120
:1005000064EB00042B0D43EA0C335E1844EB1C50E3
:10051000DA465146E7FB0201C5F313044FEA0B33F9
:1005200043EA14534FEA0432019C43EA0603A4F160
:100530000C040294009CCDE900B400F08BF903B0E8
:10054000BDE8F08F00200146F9E72DE9F04D81EA82
:10055000030404F0004B21F0004514464FF0000A5C
:1005600023F0004150EA050220D054EA01021DD0D8
:10057000C5F30A570246C5F31303C1F31300C1F3D1
:100580000A5640F4801543F48013A7EB0608101BAD
:10059000D64608F2FD3873EB050002D308F10108D6
:1005A00001E092185B41B8F1000F03DA0020014628
:1005B000BDE8F08D00204FF48011064684460EE021
:1005C000171B73EB050705D3121B63EB05030643EB
:1005D0004CEA010C49084FEA300092185B4150EA9E
:1005E0000107EDD152EA030012D082EA040083EA47
:1005F0000501084305D0101BAB4106D201220023A0
:1006000006E000224FF0004302E06FF001025310B9
:100610001AEB06004CEB085110EB0A0041EB0B0102
:10062000BDE8F04D00F007B996230022114600F016
:10063000D4B820F00040C10DC0F3160040F4000013
:100640007F2901DA00207047962903DCC1F1960169
:10065000C840704796398840704700F0004230F03B
:1006600000400AD0C10D01F56071C0F3160042EAE6
:100670000151C208400711437047002001467047EE
:1006800030B5041E71F1000404DB4FF00044404219
:1006900064EB0101141E73F1000405DB1C464FF0EE
:1006A0000043524263EB0403994208BF904230BDBD
:1006B000002801DBC0F10040002901DBC1F100414D
:1006C00081427047002801DBC0F10040002901DBB6
:1006D000C1F100418842704730B50B460146002009
:1006E0002022012409E021FA02F59D4205D303FAF4
:1006F00002F5491B04FA02F52844151EA2F1010275
:10070000F1DC30BD2DE9F05F0546002092469B46A6
:1007100088460646814640241BE028464146474617
:10072000224600F02FF853465A46C01A914110D382
:1007300011461846224600F016F82D1A67EB0108FC
:100740004F4622460120002100F00DF817EB00096A
:100750004E41201EA4F10104DFDC484631462A4602
:100760004346BDE8F09F202A04DB203A00FA02F15C
:10077000002070479140C2F1200320FA03F319438F
:1007800090407047202A04DB203A21FA02F0002131
:10079000704721FA02F3D040C2F120029140084391
:1007A00019467047202A06DBCB17203A41FA02F09F
:1007B00043EAE07306E041FA02F3D040C2F12002BE
:1007C00091400843194670470029A8BF7047401C54
:1007D000490008BF20F00100704710B4B0FA80FC57
:1007E00000FA0CF050EA010404BF10BC704749B194
:1007F000CCF1200421FA04F411FA0CF118BF012104
:1008000021430843A3EB0C01CB1D4FEA00614FEAE3
:10081000102042BF002010BC704700EBC3501044B2
:100820000029A4BF10BC7047401C490008BF20F03D
:10083000010010BC704710B5141E73F1000408DAF3
:10084000401C41F1000192185B411A4301D120F094
:10085000010010BD2DE9F04D92469B4611B1B1FA51
:1008600081F202E0B0FA80F220329046FFF77BFF7F
:1008700004460F4640EA0A0041EA0B0153465A4635
:10088000084313D0114653EA010019D0C8F14002C1
:100890005046FFF777FF05460E46504659464246FA
:1008A000FFF761FF084305D0012004E020463946E8
:1008B000BDE8F08D0020054346EAE0762C4337433F
:1008C0000A986305E40AA0EB08000022FD0A44EA46
:1008D00047540A3002D500200146E9E70105101906
:1008E0006941DDE9084500196941BDE8F04DA2E71D
:1008F000C1F30A52C1F3130140F2FF3341F48011F6
:100900009A4202DA00200146704740F233439A428D
:10091000A2F2334202DC5242FFF734BFFFF723BF9B
:10092000064C074D06E0E06840F0010394E807003C
:1009300098471034AC42F6D3FFF7FEFB584100084D
:10094000784100080029816802D041F0010101E0EE
:1009500021F00101816070470029816802D041F4D3
:10096000807101E021F48071816070470D4910B5FC
:10097000884202D1012144150AE00B49884202D184
:100980000121041504E0094988420AD10121CC0360
:10099000204601F077FC2046BDE81040002101F020
:1009A00071BC10BD0024014000280140003C014002
:1009B000014600208968490700D50120704701469B
:1009C00000208968090700D50120704710B54268EA
:1009D0000E4B0C791A400B6842EA04221343436021
:1009E00082680B4B1A40D1E9024323434C7942EA17
:1009F000440213438360C26A097C22F47002491ED8
:100A0000C9B242EA0151C16210BD0000FFFEF0FF11
:100A1000FDF7F1FF70B592B001214FF4017001F0C4
:100A200025FC4FF4004001F0F3FB0320ADF840003B
:100A300000248DF8434010A9324800F00BFD324DE0
:100A40002846FFF793FF01218DF830108DF8311003
:100A50000B944FF46020CDE90D0402208DF83C008A
:100A60000BA92846FFF7B2FF0523012200212846E3
:100A700000F0CCF8052302220121284600F0C6F838
:100A800001212846FFF768FF01212846FFF75AFF9A
:100A9000284600F0F5F82846FFF791FF0028FAD124
:100AA000284600F0FCF82846FFF782FF0028FAD11C
:100AB0000121084601F0B6FB144E304600F0E2F981
:100AC000114869464C3000901148CDE901041020CE
:100AD000CDE9030480200590400006908000079037
:100AE000202008900002CDE90904304600F03CFACD
:100AF0000121304600F0BBF90121284600F0C5F87D
:100B000012B070BD000801400024014008000240FE
:100B1000C00400202DE9F843364F3879002866D00C
:100B200000203871344B054606460146044633F82A
:100B300010205FEAC07C13D03244641C96B2E4B249
:100B4000401CC0B21028F2D379B10846FFF76CFD03
:100B500080462846FFF768FD4146FFF79FFB05E00A
:100B60002A44491C95B2C9B2EAE70020054654B1AF
:100B70002046FFF759FD04463046FFF755FD214654
:100B8000FFF78CFB00E0002006462846FFF751FDEA
:100B900080B2FFF749FD1949FFF780FB1849FFF7BD
:100BA0004BFB1849FFF748FB1749FFF745FB044685
:100BB0003046FFF73EFD80B2214600F075F805464D
:100BC0000C4821460830831F00900B489A1E2030A5
:100BD00001F004FC3861074829460C30A0F10903F4
:100BE000009005489A1E403001F0F8FB7861BDE89E
:100BF000F883000074000020C004002000F07F454E
:100C0000333353400000C8426F12033F70B50726CC
:100C100009290AD9C568A1F10A0404EB4404A640D5
:100C2000B543A3401D43C56007E0056901EB4104DE
:100C3000A640B543A3401D4305611F23072A09D2DF
:100C4000446B521E02EB820293409C4391400C4342
:100C5000446370BD0D2A09D2046BD21F02EB8202DD
:100C600093409C4391400C43046370BDC46A0D3AA9
:100C700002EB820293409C4391400C43C46270BDDE
:100C8000816841F00801816070470029816802D0C5
:100C900041F4A00101E021F4A00181607047816866
:100CA00041F004018160704770B50C46FFF7BCFC51
:100CB0001449FFF7F3FA1449FFF7BEFA1349FFF797
:100CC000BBFA054612492046FFF7B0FA1149FFF773
:100CD000B3FA01462846FFF757FA0F4C0146204663
:100CE000FFF7A4FA2146FFF7D9FA0C4C2146FFF78B
:100CF000A3FA10F1FF4F01D3002070BDA042FCDD2C
:100D0000204670BD00F07F45333353407CF0C13F37
:100D10000000C84152499DBC0000904000007A4448
:100D200038B500F041FF642002F053FC01F0F2F905
:100D300000237F221946184600F074FF7F223F23CC
:100D40000021104600F06EFF3F23002219467F204D
:100D500000F068FF00231A463F21184600F062FFAA
:100D60003023752219460A2000F05CFF75223A23D1
:100D70003021104600F056FF3A230A22194675200A
:100D800000F050FF0A2230233A21104600F04AFFBB
:100D900001F0C0F9082329A20C21002001F04AF932
:100DA00006232DA222210C2001F044F901F0B2F912
:100DB000002401252246082331210B20009500F054
:100DC000C1FF0A236C223021184601F0B7F90A202E
:100DD00002F0FFFB641CE4B26B2CEBD91E238022D3
:100DE0002221002000F0F4FE00237F22194618463D
:100DF00000F018FF7F223F230021104600F012FF71
:100E000000223F231146104600F00CFF3F237F22B3
:100E10001946002000F006FF082312A221212820F5
:100E200001F008F901F076F94FF47A7002F0D1FB85
:100E300000F0BAFEBDE8384001F06CB94865617455
:100E4000696E672056616C766520436F6E74726FB1
:100E50006C6C6572000000004C6F6164696E672EF7
:100E60002E2E00005265616479210000FEE7002902
:100E7000016802D041F0010102E04FF6FE7211401C
:100E80000160704701684FF6FE7211400160002159
:100E9000016041608160C1603149314A0839904246
:100EA00003D1486840F00F0006E02D4A143290420A
:100EB00004D1486840F0F00048607047284A283262
:100EC000904203D1486840F47060F5E7244A3C3210
:100ED000904203D1486840F47040EDE7204A503218
:100EE000904203D1486840F47020E5E71C4A643220
:100EF000904203D1486840F47000DDE7184A783228
:100F0000904203D1486840F07060D5E7154A111F40
:100F1000904203D1086840F00F0006E0114A1432F5
:100F2000904204D1086840F0F000086070470D4A14
:100F30002832904203D1086840F47060F5E7094A0E
:100F40003C32904203D1086840F47040EDE7054A16
:100F500050329042EAD1086840F47020E5E7000082
:100F6000080002400804024030B5026847F6F073FA
:100F70009A430C6A8B682343D1E904452C432343ED
:100F80008C692343CC6923434C6A23438C6A2343F3
:100F900013430360CA6842600A6882604968C1609E
:100FA00030BD704710B5344C88B06069FFF755FB11
:100FB000CDE9000131A2142102A801F077FE002141
:100FC000082302AA084601F035F808232EA20021C2
:100FD000482001F02FF8A069FFF73FFBCDE90001A1
:100FE0002AA2142102A801F061FE082302AA1021FE
:100FF000002001F01FF8082323A21021482001F04F
:1010000019F8E069FFF729FB02460B4622A102A866
:1010100001F066FE082302AA2021002001F00AF850
:10102000082320A22021482001F004F8207A10B1E2
:10103000A078012805D0E0784FF0080328B11AA263
:1010400007E0607A18B1A07CF6E71AA201E0082355
:101050001BA23021002000F0EDFF207A002809D1EA
:10106000A078012806D10020102380223021009092
:1010700000F068FE08B010BD300000204D617854CB
:101080003A252E3166000000430000004D696E5481
:101090003A252E3166000000547572623A252E31D1
:1010A000660000004E5455004D6F64653A417574FA
:1010B0006F2000004D6F64653A4D616E75616C0084
:1010C0004D6F64653A2020202020200010B545484F
:1010D00086B00068FFF7C1FA02460B4642A101A89C
:1010E00001F0FEFD0021082301AA084600F0A2FF3E
:1010F000082340A20021482000F09CFF3E480068E1
:10110000FFF7ABFA02460B463CA101A801F0E8FD4F
:10111000082301AA1021002000F08CFF08233AA226
:101120001021482000F086FF384C207A10B1A078BA
:1011300002281AD0206AFFF790FA02460B4634A123
:1011400001A801F0CDFD082301AA2021002000F014
:1011500071FF08232CA22021482000F06BFFE078CB
:1011600060B101F031FD02460EE0607A08B1206CFA
:10117000E1E72AA101A801F0B3FDE4E7207A10B16C
:10118000A07801281FD0627827A101A801F0A8FD4E
:10119000082301AA3021002000F04CFF207A00280B
:1011A0000FD1A0780021022816D0012809D1E078BB
:1011B000002806D11023502200913021002000F099
:1011C000C1FD06B010BD607A08B1627CDCE719A1F0
:1011D00001A801F085FDDBE710235A2200912021B0
:1011E000ECE7000088000020547572623A252E3129
:1011F000660000004E5455008400002054656D7058
:101200003A252E3166000000430000003000002027
:10121000536574543A252E316600000053657454AA
:101220003A2020202020000053657474696E673ACC
:101230002564000053657474696E673A20000000ED
:1012400070B51E4C1E4D2068A969FFF73BFA06D801
:1012500069692068FFF72CFA01D8012400E0002416
:101260001848E9690068FFF723FA01D2012500E078
:1012700000254FF0080314B113A2002107E000215C
:1012800014A2084600F0D6FE082315A21021002063
:1012900000F0D0FE4FF0080315B115A2202107E0A1
:1012A00016A22021002000F0C5FE082317A230213D
:1012B000BDE87040002000F0BDBE000084000020AA
:1012C000300000208800002054656D703A4F4B219B
:1012D0000000000054656D703A4552524F52210093
:1012E000506C6561736520636865636B0000000086
:1012F00057617465723A4F4B210000005761746565
:10130000723A4552524F5221000000004E6565640A
:101310002068616E646C65002DE9F0411A484FF455
:1013200080570468384600F039F8184D012620B17E
:101330002C602E71384600F02BF84FF400573846D9
:1013400000F02CF820B1AC602E73384600F020F885
:101350004FF48047384600F021F820B12C612E75FB
:10136000384600F015F84FF40047384600F016F8FC
:10137000002806D0AC612E773846BDE8F04100F079
:1013800007B8BDE8F081000090000020A004002014
:10139000014908607047000014040140064A0146F4
:1013A00000201268044B0A4014331B680B4202D021
:1013B000002A00D0012070470004014030B51A4ACD
:1013C0008379016853B313688B431360111D0B6855
:1013D0000468A3430B60017911440B68046823433C
:1013E0000B60114B083319680468A14319601C1D78
:1013F00021680568A94321604179102905D011446D
:101400000A68006802430A6030BD19680268114327
:101410001960216800680143216030BD00791044E3
:1014200002688A43026030BD0004014010B58A079B
:1014300021F003040649120F21440F238C689340C6
:101440009C438C608B68904003438B6010BD000010
:1014500000000140F0B5CC78002204F00F03E40650
:1014600001D58C7823430C784FF00F0C14F0FF0F4C
:101470004FF0010E1BD005680E880EFA02F42640CC
:10148000A64210D196000CFA06F725EA070703FAE0
:1014900006F5CE783D43282E02D0482E02D002E039
:1014A000446100E00461521C082AE5D305600A8803
:1014B000FF2A1CD94468002202F108060EFA06F53C
:1014C0000E882E40AE420ED196000CFA06F7BC43B1
:1014D00003FA06F7CE783C43282E00D14561CE783A
:1014E000482E00D10561521C082AE5D34460F0BDA6
:1014F0000246002092680A4200D0012070474161F4
:101500007047016170470AB10161704741617047DE
:101510002DE9F041594F044601263878032803D0BD
:101520000025022811D063E0012C44D1387C3870AA
:101530005348B97A0068022901D1FE723863397BB9
:10154000022901D17E73B86391E04C483A7AC178A0
:10155000807892B3022808D001282CD109B3012C3D
:1015600001D0022C27D13D7240E044484FF07C511D
:10157000042C006C04D0032C0AD0022C0FD018E0ED
:10158000FEF702FE3F49386488422FDD39642DE0C2
:10159000FEF74CFE3C4938648842F7DB26E03862AF
:1015A000E1E73648042C407C08D0032C0AD0022CFA
:1015B0000CD0012CD7D0BDE8F0810BE0052815D266
:1015C000401C01E090B1401E78740FE0787001F08B
:1015D0003BFBC8E7022C1AD00221042C22D0032C9A
:1015E000E9D140B3022824D0012820D001F088F8A6
:1015F00038780128DFD1387A48B3042C1DD0032C69
:101600001BD0022C20D0012CD5D13D722FE0022816
:1016100003D00128CFD10029CDD1386A3864787839
:1016200078741FE028B1012805D00228DED1BD70F2
:10163000DCE7BE70DAE7B970D8E7B87C10B10020FB
:10164000B87414E00120FBE7B87CF870DDE7042CE7
:101650000AD0032C08D0022CADD1B8780128AAD129
:10166000F878B8743E7202E0B87820B1BD70BDE879
:10167000F04101F045B8BE70F9E7000030000020ED
:10168000900000200000204200002041FEE7000002
:1016900010B5094A074C00231178032805D0042807
:1016A00002D12377042903D010BD23750329FBD170
:1016B000137010BDA00400202C0000201FB50121D4
:1016C000092000F0D3FD4FF47044ADF80C404820E1
:1016D0008DF80F0003208DF80E0003A91648FFF7C0
:1016E000B9FE0C210120FFF7A1FE0D210120FFF71B
:1016F0009DFE0E210120FFF799FE0F210120FFF72B
:1017000095FE00208DF804000C2000948DF8050053
:1017100001248DF806406846FFF750FE28208DF81A
:10172000080002208DF809008DF80A408DF80B4062
:1017300002A800F0FDF91FBD000C01402DE9F05F8B
:1017400020480026DFF88090DFF880B0D0F80080D5
:101750003546B2460BEBC507397949B35BF835100E
:10176000A8EB0100142823D335B1012D08D0022D98
:101770000AD0032D1CD10BE04FF4805101240AE064
:101780004FF40051022406E04FF48041032402E0AC
:101790004FF4004104240E48FFF7AAFE30B999F82F
:1017A0000010A14202D0264689F8004087F804A024
:1017B0006D1CEDB2042DCDD30EB989F800A03046D2
:1017C000BDE8F09F900000202C000020A004002025
:1017D000000C014038B50121102000F047FD102019
:1017E0008DF803004402ADF800400320054D8DF84C
:1017F000020069462846FFF72DFE21462846FFF7DE
:1018000080FE38BD00100140FEE700000C4810B516
:10181000022101700021817001724FF08442426107
:10182000084A82614FF08242C261074A02624170F7
:101830000171417100F05EFFBDE8104000F060BF33
:1018400030000020000070410000D8412DE9F05F19
:1018500090488E4D8E4F04682868B969FEF728FFBE
:1018600004D379692868FEF72DFF01D2012000E03A
:10187000002081468848F9690068FEF723FF01D8F7
:10188000012000E000200025012641F288314EF6BB
:1018900060224FF00208B9F1000F14D0BB7B1BB1DE
:1018A000BB7A012B03D008E0FC62BE7205E0FB6A44
:1018B000E31A8B4201D387F80A80FB7A53B1BB7AD3
:1018C000022B02D006E0BD7203E03B6BE31A9342A9
:1018D00000D3FD72A0B1FB7B1BB13B7B012B03D07E
:1018E00008E07C633E7305E07B6BE31A8B4201D317
:1018F00087F80C80797B51B1397B022902D006E050
:101900003D7303E0B96B611A914200D37D7387F890
:101910000E90F873B87A022801D1F87A20B100212C
:10192000387B022802D003E00121F9E7787B88B1F7
:10193000002051EA00024FF0030A4FF4FA7913D065
:101940003A78032A1FD03A7487F800A031B118B151
:1019500052A005E00120ECE754A001E010B155A031
:1019600001F0CEF800F0CCFE3878022808D1387AA1
:1019700090B9F86B201A48451DD3FC6300F0C0FEF7
:101980003878032806D1F86B201A484502D3FC6347
:1019900000F0B6FE387A70B1B86A201AB0F5967FBA
:1019A0000AD9787A28B100207872BC6200F0A8FECB
:1019B00002E00120F8E77E72DFF800B14FF4004149
:1019C0005846FFF795FD68B1002081464FF48041ED
:1019D0005846FFF78DFD38B10021B87930B10228A3
:1019E0000ED00EE00120F0E70121F6E7B9F1000F7B
:1019F00002D087F8068001E051B3BE717C6237E007
:101A000049460029F97926D011BB796A611AB1F5E6
:101A10007A7F2ED30228387804D002280BD00128F0
:101A200004D006E0022804D0012804D087F8008002
:101A300003E03E7001E087F800A03D72BD7000F049
:101A40005FFEFE71B879022803D00320FFF720FE65
:101A50000FE00420FAE749B9022802D0012802D099
:101A600004E0042000E00320FFF752FDBD717D6219
:101A7000FD71FFF763FE002806D0B979002903D174
:101A8000BDE8F05FFFF744BDBDE8F09F8400002093
:101A900030000020900000208800002074656D70E8
:101AA00020616E64207761746572000074656D70EA
:101AB000000000007761746572000000000C0140B6
:101AC00070B50446174DC0074FF01001284602D0EC
:101AD000FFF717FD01E0FFF712FDA0074FF020010F
:101AE000284602D5FFF70DFD01E0FFF708FD60076E
:101AF0004FF04001284602D5FFF703FD01E0FFF754
:101B0000FEFC20074FF08001284602D5FFF7F9FCC4
:101B100001E0FFF7F4FC04488088BDE8704001F064
:101B200058BD0000000801401C0000207047000064
:101B300030B50F23C27801780125F2B1144A12683A
:101B400001F1E02102F4E062C2F5E062120AC2F1A2
:101B50000404D3404278A24084781C4014432201FC
:101B600081F80024007800F01F018D4040098000BA
:101B700000F1E020C0F8005130BD01F01F008540A9
:101B80004809800000F1E020C0F8805130BD00001D
:101B90000CED00E00249084302490860704700006C
:101BA0000000FA050CED00E010B50021074C0A46D4
:101BB000002004EBC1131A54401CC0B28028FAD391
:101BC000491CC9B20829F3D310BD0000A0000020B1
:101BD000F0B501EB030C20E00446871819E07F2CD8
:101BE00015D8002913DB3F2911DCCB1701EB537605
:101BF000F5100B4B26F0070603EBC5132344A1EBAE
:101C0000060E1D78012606FA0EF6B5431D70641CFB
:101C100024B2A742E3DC491C09B28C45DCDCF0BDF0
:101C2000A00000202DE9F04F1D464FF00009164698
:101C30000C460746C846A9420ED1B74208DD3E46CB
:101C4000174605E02146384600F062F87F1C3FB297
:101C5000B742F7DDBDE8F08FB7420DD1AC4208DDE9
:101C60001C460D4605E02146384600F051F8641C3C
:101C700024B2AC42F7DDEDE703DD3E4617461C46D5
:101C80000D46AC4205DD604204B2684205B24FF039
:101C90000109281BF11B884207DD38462746044608
:101CA00030462E4605464FF00108281B4200F11B26
:101CB0000FFA82FB421A52000FFA82FAC1EB40007F
:101CC00019E0784201B203E0604201B203E0394614
:101CD000204601E02146384600F01AF8B742B9DA4A
:101CE0007F1C3FB2002D02DA05EB0B0003E0641C01
:101CF00024B205EB0A0005B2B9F1000F03D0B8F128
:101D0000000FE1D0DDE7B8F1000FE3D0DFE700001E
:101D100010B57F2813D8002911DB3F290FDCCA1723
:101D200001EB5272D410064B22F0070203EBC413EE
:101D300018448A1A0378012191400B43037010BDA7
:101D4000A00000202DE9F0430746CD1807988846EB
:101D5000BE1870BB681E3C460FFA80F909E0414688
:101D60002046FFF7D5FF49462046FFF7D1FF641C08
:101D700024B2A642F3DC761E444636B209E0214680
:101D80003846FFF7C5FF30462146FFF7C1FF641C08
:101D900024B2A542F3DCBDE8F083444605E02146C9
:101DA0003846FFF7B5FF641C24B2A542F7DC7F1C60
:101DB0003FB2BE42F1DCEEE738B500214FF47A7253
:101DC0000020401C9042FCD3491C9142F8D30121D1
:101DD000082000F04BFA14208DF8030003208DF842
:101DE00002004FF480700A4CADF8000069462046AE
:101DF000FFF730FB6115ADF8001069462046FFF78C
:101E000029FB012000F0CAF9012000F0CFF938BD0C
:101E1000000C014070B500240546802626FA04F027
:101E2000284000D0012000F0C1F9012000F0B6F9EF
:101E3000002000F0B3F9641CE4B2082CEED30120BA
:101E400000F0ACF9BDE87040002000F0A7B910B573
:101E5000012000F0ABF9012000F0A0F9002000F013
:101E6000A5F9BDE81040002000F098B910B5002099
:101E700000F09CF9012000F091F9BDE8104001202C
:101E800000F094B910B5FFF797FFAE2000F096F977
:101E9000D52000F093F9802000F090F9A82000F000
:101EA0008DF93F2000F08AF9D32000F087F9002057
:101EB00000F084F9402000F081F9A12000F07EF9C3
:101EC000C82000F07BF9DA2000F078F9122000F049
:101ED00075F9812000F072F9CF2000F06FF9D92058
:101EE00000F06CF9F12000F069F9DB2000F066F9F0
:101EF000302000F063F9A42000F060F9A62000F083
:101F00005DF98D2000F05AF9142000F057F9AF2048
:101F100000F054F9FFF748FEBDE8104000F0FAB8B1
:101F200010B50C4640F0B00000F048F9102040EA2F
:101F3000141000F043F904F00F00BDE8104000F069
:101F40003DB9000008B5082B0DD0062B0AD10A4B6D
:101F500002EB420203EB4202C03A0092082306223F
:101F600000F00EF808BD054B03EB0212A2F500725B
:101F7000102300920822F3E7C03C0008D036000886
:101F80002DE9FF4F1F4616460D460024DDF834A00C
:101F90000098FFF71DFE7F1EF81707EB5070012118
:101FA000DFF88CB001EBE00E3DE0002037E0009957
:101FB0000B187F2B31D8E91705EB5171CA1021F0AE
:101FC0000701691A002D03DA521E083112B209B254
:101FD0002244072A0ED804FB06F70AEB00080BEB95
:101FE000C21917F8087019F803C08F404CEA070CA3
:101FF00009F803C0571C072F0FD80BEBC21204FBC4
:1020000006F70AEB000C1A4417F80C7012F8803F20
:10201000C1F10801CF403B431370401CC0B2B04235
:10202000C5D3641CE4B2A645BFDCBDE8FF8F000049
:10203000A00000202DE9FF4F002683B0984693466C
:1020400081463446DFF8C4A058E010068DF804201D
:1020500006F101060ED400208DF8050009EB0400FE
:10206000B6B200B243460499FFF76CFF04EB0800D8
:1020700084B243E0B0B21BF80010002942D0401CEB
:1020800086B200208DF805108DF80600054606E0A2
:10209000384601A9FEF76AF868B16D1CADB2C5EB10
:1020A000C50000EB800101EB0A00074618A1FEF70E
:1020B0005DF80028ECD1B8F1080F03D0B8F1060F95
:1020C0001CD111E0C5EBC50000EB800101EB0A005B
:1020D000C01C009009EB0400102300B21A460499BA
:1020E000FFF74EFF103408E009EB040000B20623AE
:1020F0003F220499FFF726FFA41DA4B21BF8062077
:10210000002AA2D107B0BDE8F08F0000FA3E000817
:102110000000000070B5084D002400212046FFF7A4
:10212000FFFE05EBC410802100F059F8641CE4B2F6
:10213000082CF2D370BD0000A00000202DE9F04172
:102140000546C81701EB5070C410C8189046401ED1
:10215000C21700EB5270012202EBE00006B2002928
:1021600002DA761E36B2641E0B4F11E07F2D0DD8B9
:10217000002C0BDB072C09DCE9B2E0B2FFF7D0FE44
:1021800007EBC4102844414600F029F8641C24B22F
:10219000B442EBDBBDE8F081A000002002464FF422
:1021A00080710148FFF7AFB9000C014002464FF4BF
:1021B00000710148FFF7A7B9000C014010B50446B3
:1021C000FFF745FE7820FFF725FE0020FFF722FEEF
:1021D0002046FFF71FFEBDE81040FFF747BE70B571
:1021E0000D460646FFF733FE7820FFF713FE40202A
:1021F000FFF710FE002404E0305DFFF70BFE641CC7
:10220000E4B2AC42F8D3BDE87040FFF72FBE704790
:10221000034A516821F44041014351607047000076
:1022200000100240044A0029516901D0014300E036
:10223000814351617047000000100240044A0029A8
:10224000D16901D0014300E08143D16170470000B2
:1022500000100240044A0029116901D0014300E046
:10226000814311617047000000100240044A0029B8
:10227000916901D0014300E0814391617047000002
:1022800000100240044A0029D16801D0014300E057
:102290008143D160704700000010024030B5204AF1
:1022A0005168204B11F00C0103D0042901D00829FA
:1022B00001D0036012E05168536801F470114FF0CF
:1022C000020413F4803F04EB914102D053689B0356
:1022D00001D5154B00E0134B5943016051680F23A2
:1022E00003EA1111114B5C5C0168E14041605468E4
:1022F000072505EA14241C5D21FA04F4846054685F
:1023000005EAD4241B5DD940C1605268032303EA67
:102310009232064B1B1F9A5CB1FBF2F1016130BD9A
:102320000010024000127A0000093D000C0000205D
:10233000704700000CB50022264800920192016807
:1023400041F4803101604FF4A063016801F4003171
:1023500001910099491C0091019911B90099994284
:10236000F3D10168890333D5012101911A490A6823
:1023700042F010020A600A6822F003020A600A684A
:1023800042F002020A604168416041684160416870
:1023900041F480614160416821F47C1141604168F1
:1023A00041F4E8114160016841F080710160016809
:1023B0008901FCD5416821F003014160416841F089
:1023C000020141604168C1F381010229FAD10CBDCB
:1023D00001920CBD00100240002002402DE9F041A6
:1023E00007461078069D1E4647F820101078401CBE
:1023F00000F0070010701878082801D2401C3070D7
:1024000000200446286007E057F824102868FDF7EC
:10241000BBFE641CE4B228603078A042F4D8C0B29D
:10242000FEF702F901462868BDE8F041FDF736BF26
:1024300038B501210420FFF719FFF020ADF80000A6
:1024400010208DF803000320084C8DF80200694627
:102450002046FEF7FFFFF0212046FFF750F8044822
:1024600000210A2201708280816038BD000801408D
:102470001C00002008B1012801D1014908707047F3
:102480001C000020704700000F4810B5016841F0A3
:102490000101016041680D4A1140416001680C4A28
:1024A00011400160016821F480210160416821F43C
:1024B000FE0141604FF41F018160FFF73BFF0549BA
:1024C0004FF00060086010BD001002400000FFF8EF
:1024D000FFFFF6FE08ED00E010B5094C0121204693
:1024E00000F0A5F8002809D0064920464A68521C89
:1024F0004A60BDE81040012100F08CB810BD00001A
:10250000000400408C0000207FB50C4605460121E8
:102510000220FFF793FE641E6D1EADF80040002000
:10252000ADF80450104CADF80600ADF80200694655
:10253000204600F091F801221146204600F083F871
:102540001D218DF80C1003218DF80D1002218DF83E
:102550000E1001208DF80F0003A8FFF7E9FA012102
:10256000204600F05AF87FBD0004004010B50D4C25
:102570000121204600F05BF8002812D00A48012310
:1025800003700A4A5088401C81B25180962902D3B8
:102590000020508013702046BDE81040012100F05B
:1025A00039B810BD00080040780000208C000020E1
:1025B0007FB50C46054601210420FFF73FFE641E4F
:1025C0006D1EADF800400020ADF80450104CADF881
:1025D0000600ADF802006946204600F03DF80122F1
:1025E0001146204600F02FF81E218DF80C10032014
:1025F0008DF80D0001218DF80E108DF80F1003A835
:10260000FFF796FA0121204600F007F87FBD000091
:1026100000080040C943018270470029018802D0A8
:1026200041F0010101E021F0010101807047024603
:102630000020138A92890B4202EA010202D0002A8A
:1026400000D001207047002A828901D00A4300E0AF
:102650008A4382817047000030B502881B4C1C4DB4
:10266000A0420DD0A8420BD0B0F1804F08D0194B3A
:10267000984205D0184B984202D0184B984203D18B
:1026800022F070034A881A43154B984206D0154B26
:10269000984203D022F44073CA881A4302808A8881
:1026A00082850A880285A0420AD0A84208D00E4A34
:1026B000904205D00D4A904202D00D4A904201D17D
:1026C000097A01860121818230BD0000002C014081
:1026D000003401400004004000080040000C0040AD
:1026E0000010004000140040004001400044014040
:1026F000004801404023802200210846FFF768BAC5
:1027000010B5FFF7F7FF0C480078012807D0022822
:1027100002D0032808D105E0FEF7D8FC04E0FEF75C
:1027200041FC01E0FEF78CFD402380220021BDE842
:1027300010400846FFF702BD3000002010B50B4CDA
:1027400040F22551204600F088F800280DD02046A0
:1027500000F010F9074A064B11785854491CC8B2CA
:102760001070C82801D3C720107010BD004400406D
:102770001F0600209800002010B50D4C40F2255196
:10278000204600F06AF8002811D0204600F0F2F848
:10279000084A094CD188C1F30E03491CE05488B2A1
:1027A000D080010403D4C72801D90020D08010BDF7
:1027B0000048004098000020E7060020C94301803F
:1027C00070470029818902D041F4005101E021F4D1
:1027D0000051818170470000174910B588420AD125
:1027E00001218C032046FFF74DFD2046BDE8104037
:1027F0000021FFF747BD1149884202D101214C0455
:1028000010E00F49884202D101218C040AE00D49F1
:10281000884202D10121CC0404E00B4988420AD14C
:1028200001210C052046FFF715FD2046BDE81040AC
:102830000021FFF70FBD10BD0038014000440040EB
:1028400000480040004C004000500040024600207C
:1028500012880A4200D00120704770B501F01F05B0
:1028600001260024C1F3421306FA05F2012B0FD012
:10287000022B0FD0838A4FEA11210088134206FAF7
:1028800001F600EA060001D000B10124204670BD27
:102890008389F0E7038AEEE710B5C1F3421301F034
:1028A0001F040121A140012B07D0022B07D01430B7
:1028B000002A026805D00A4304E00C30F8E7103023
:1028C000F6E78A43026010BD30B50446008A85B041
:1028D0000D464CF6FF710840E98801432182A0892A
:1028E0004EF6F3110840A9882A8911436A890243E8
:1028F0001143A181A08A4FF6FF410840A9890143F5
:10290000A1826846FFF7CAFC1948844201D10398A6
:1029100000E00298A189090400EBC00101EB00105E
:10292000296801D5490000E08900B0FBF1F064227C
:10293000B0FBF2F109010B096FF018056B4300EBD6
:102940008300A3891D044FF0320306D503EBC000BA
:10295000B0FBF2F000F0070005E003EB0010B0FB65
:10296000F2F000F00F000843208105B030BD0000F8
:10297000003801408088C0F308007047C1F30801A7
:1029800081807047FEE7000070B5044686B00121E3
:102990000420FFF76BFC01218803FFF767FC01218E
:1029A0000846FFF763FC254D2846FFF715FF68151D
:1029B000ADF8100003208DF812001820204E8DF87D
:1029C000130004A93046FEF745FD2815ADF81000A8
:1029D00004208DF8130004A93046FEF73BFD0020CB
:1029E000ADF80400ADF80600ADF80800ADF80C0035
:1029F0000C20ADF80A00009469462846FFF764FFF2
:102A0000002240F225512846FFF746FF4021284684
:102A1000FFF7D4FE25208DF8140002208DF8150054
:102A20008DF8160001208DF8170005A8FFF780F833
:102A300001212846FFF7C5FE06B070BD00380140F1
:102A400000080140F0B5074687B001210420FFF7D8
:102A50000DFC01214804FFF7F1FB01210846FFF7B7
:102A600005FC254D2846FFF7B7FE0424ADF81040BD
:102A700003208DF812001820204E8DF8130004A9B1
:102A80003046FEF7E7FC0820ADF810008DF8134043
:102A900004A93046FEF7DEFC0024ADF808400C2007
:102AA000ADF80440ADF80A000097ADF80640ADF867
:102AB0000C4069462846FFF707FF012240F22551E6
:102AC0002846FFF7E9FE40212846FFF777FE26203B
:102AD0008DF8140002208DF815008DF816400120A5
:102AE0008DF8170005A8FFF723F801212846FFF706
:102AF00068FE07B0F0BD000000440040000801403F
:102B000070B50446124D0AE040212846FFF79EFEAC
:102B10000028F9D021782846FFF730FF641C207880
:102B20000028F1D140212846FFF790FE0028F9D077
:102B30000D212846FFF722FF40212846FFF786FE99
:102B40000028F9D02846BDE870400A21FFF716BFDB
:102B500000440040174A10B55478FDF767FB4FF06A
:102B60003F42904206D8B0F17C5F03DCBDE81040E4
:102B700000F090B81049884201D3052013E00F49B6
:102B8000884201D304200EE0904201D303200AE0E2
:102B90000B49884201DC022005E00A49884201DC39
:102BA000012000E00020A04203D0BDE8104000F06A
:102BB0004BB810BD1C0000200000D0C0000060C059
:102BC000000060400000D04001484078704700009D
:102BD0001C0000202DE9F04118490646184BC86832
:102BE00040B18A786AB1B04200D2C6B20025154F12
:102BF00088461EE0F0211846FEF781FC0020BDE863
:102C0000F0810020C860F5E70024385DFEF758FF2A
:102C1000641CE4B2082CF8D3D8F80800401CC8F8AB
:102C20000800D8F80C00401EC8F80C0003D06D1C3A
:102C3000EDB2B542E8D30120E1E700001C0000201E
:102C4000000801404D41000810B50246104C01201B
:102C5000052AA07000D9052240F2D6605043052114
:102C6000B0FBF1F0A168431A002B06D009DD4FF04C
:102C70000000FFF7FFFBE36008E062700020E06007
:102C800010BD0120FFF7F6FB5842E060627010BDF6
:102C90001C00002003480021C1608170F02102481F
:102CA000FEF72DBC1C000020000801400FB47CB5CD
:102CB0000C0009AD01D0611E00E00021CDE900014A
:102CC000064B6A462946089800F0F0F8002C02D01E
:102CD000009A002111707CBC5DF814FBB33500082C
:102CE0000FB4084B10B504A902AA039800F0DEF84F
:102CF000044602A9002000F067FC204610BC5DF8E5
:102D000014FB0000C935000802E008C8121F08C102
:102D1000002AFAD170477047002001E001C1121F5C
:102D2000002AFBD1704700002DE9FF5F82B000212F
:102D3000DDE90430020DDDF840B0034318D044F65D
:102D40001050A2F2FF3242431514119801281FD0EF
:102D5000A5EB0B00401C5FEA000A4FF000064E4F47
:102D6000DFF83891B046504615D5CAF1000413E09B
:102D7000119801244AA3012801D16FEA0B0102989E
:102D8000119AC0E90031C0E9024206B0BDE8F09FE7
:102D9000CBF10000DFE704460021404A491842EB2E
:102DA0000450CDE9001012E0E00707D032463B4660
:102DB00040464946FDF757FB8046894632463B462A
:102DC00010461946FDF74FFB06460F466410002CCF
:102DD000EAD1DDE90401DDE90023BAF1000F06DAEA
:102DE000FDF741FB42464B46FDF73DFB05E0FDF795
:102DF000ACFB42464B46FDF7A8FB04460E460022BC
:102E0000284BFDF73DFC03D84FF0FF30014607E0AB
:102E10000022254B20463146FDF77EFAFDF768FD7E
:102E2000102409E0002C0ADB0A220023FDF76AFCCB
:102E3000039B30321A55641E50EA0102F2D1641C21
:102E4000039AC4F111031444119A012A03D00122F8
:102E500008430DD10AE0084304D000204FF0110BC5
:102E6000119072E7A3EB0B056D1E0DE05B4504DDD1
:102E70004FF0000205F1010504E003DA4FF0000213
:102E8000A5F10105002AECD002981199C0E90231A0
:102E9000C0E9004579E70000000014400000F03F61
:102EA000300000000000F0430000E03F2DE9FF4F3C
:102EB00095B09A46884606460025EEE1252877D14A
:102EC00000242746F94A0121039400E0044316F840
:102ED000013F203B01FA03F01042F7D130782A2855
:102EE00011D06FF02F033078A0F13002092A16D8E4
:102EF000039A44F0020402EB820203EB4202104404
:102F0000761C0390EFE758F8042B0392002A03DAAB
:102F1000504244F40054039044F00204761C30788C
:102F20002E2816D116F8010F44F004042A280DD0DB
:102F30006FF02F023078A0F13003092B09D807EB8E
:102F4000870302EB4303C718761CF3E758F8047BAA
:102F5000761C30786C280FD006DC4C2817D06828F7
:102F60000DD06A2814D104E0742810D07A280FD12B
:102F70000DE044F400140AE044F4801401E044F449
:102F800040147278824202D104F58014761C761CBB
:102F9000307866280BD013DC582877D009DC00285D
:102FA00075D04528F6D04628F4D047281AD193E1A9
:102FB00018E0632835D0642879D0652812D18BE1D8
:102FC000702873D008DC6728F1D069286FD06E288C
:102FD0000DD06F2806D1ACE073282CD0752874D0A2
:102FE000782853D05246179990476D1C54E1C4F38A
:102FF0000250022809D003280DD0D8F80010042868
:103000000DD00D6008F1040846E1D8F80010EA1769
:10301000C1E90052F6E7D8F800100D80F2E70D7014
:10302000F0E718F8041B8DF8001000208DF801005F
:10303000EB46012003E058F804BB4FF0FF30610776
:103040004FF0000102D40DE009F101018946B942B7
:103050000FDA8145F8DB1BF809100029F4D108E0EC
:1030600009F1010189468142FADB1BF809100029A8
:10307000F6D103985346A0EB090721463846179A24
:1030800000F080FA284400EB090507E044E008E17D
:103090000DE01BF8010B524617999047B9F1010951
:1030A000F7D2534621463846179AF2E039E00A2112
:1030B000C4F302524FF0000B0091022A06D058F8D8
:1030C000040BC117032A09D00AE023E008F1070026
:1030D00020F00702F2E80201904605E000B2C117B5
:1030E000042A01D140B2C117002906DA0A4600219C
:1030F000404261EB02012D2202E0220504D52B2281
:103100008DF80420012203E0E20701D02022F7E736
:10311000914657E00A2100E010214FF0000B00918A
:103120000BE010214FF0000B44F00404082700913D
:1031300003E008204FF0000B0090C4F30252022A73
:1031400005D058F8040B0021032A08D008E008F144
:10315000070020F00702F2E80201904603E080B287
:10316000042A00D1C0B24FF0000922072AD53278D4
:10317000702A07D0DDF800C08CF0100C5CEA0B0C54
:1031800005D00EE040228DF80420012208E050EA2C
:10319000010306D030238DF804308DF8052002227B
:1031A0009146009B83F0080353EA0B030AD150EACF
:1031B000010201D1620705D530228DF804204FF0BD
:1031C00001097F1E3278582A04D039A20C920CAA29
:1031D00002920BE03BA2F9E75B46009AFDF792FAF8
:1031E0000C9B9B5C029A521E0292137050EA0102E1
:1031F000F2D1029804A9081A00F1200B600702D549
:1032000024F4803400E001275F4502DDA7EB0B00CA
:1032100000E0002000EB0B01009003984944401AA5
:103220000390E00306D453462146179A039800F012
:10323000A9F90544002706E001A85246C05D179988
:1032400090476D1C7F1C4F45F6DBE0030CD55346C1
:103250002146179A039800F095F9054404E03020C0
:103260005246179990476D1C0099481E00900029FE
:10327000F5DC08E00298029952460078491C029158
:10328000179990476D1CBBF10001ABF1010BF1DC0C
:103290005BE100F065F90544761C307800287FF486
:1032A0000DAE19B02846BDE8F08F000009280100D6
:1032B00030313233343536373839616263646566AC
:1032C000000000003031323334353637383941426E
:1032D0004344454600000000600700D4062708F17B
:1032E000070020F00700F0E80223804603F0004CBE
:1032F0005FEA0C0001D097A009E0200501D596A057
:1033000005E0E00701D095A001E0AFF24C0013907A
:10331000307823F0004365280CD006DC452809D01E
:1033200046281DD047287FD13BE0662818D0672863
:103330007AD136E00021112F01DB112000E0781C4A
:10334000CDE9000104A90CA8FFF7EEFCDDE90D01B1
:103350000C9A4FF0000B07F10109109200914EE01A
:103360004FF000400097CDE9011004A90CA8FFF729
:10337000DBFCDDE90D020C9B0F994FF0000B914631
:103380001093009211B9791C00EB0109B7EB090009
:1033900003D4C0F1FF3B07F10109A9EB070001903D
:1033A00042E0012F00DA01270021112F01DD112059
:1033B00000E03846CDE9000104A90CA8FFF7B4FCF1
:1033C000DDE90D010C9A00914FF0000BB946109207
:1033D00021070FD4009A4A4503DA914601E0A9F18A
:1033E0000109B9F1010F05DD109AA9F10101515C44
:1033F0003029F4D0B84202DA10F1040F03DA0121C7
:10340000CDE9011010E0002803DC8344A9EB0001A2
:1034100002E0411C494500DD8946A0EB0B00401C41
:1034200001904FF000400290200705D401984845D4
:1034300002DB4FF0FF30019000208DF84B00029826
:103440000DF14B07B0F1004F25D002200C902B203E
:103450000D90029800280CDA404202902D200D9029
:1034600007E00A210298FDF737F93031029007F89A
:10347000011D0C99481E0C900029F2DC02980028CE
:10348000EFD1791E0D980870307800F0200040F0E0
:10349000450007F8020D11A8C01BC01D029013982B
:1034A000007800B1012000EB0901019801EBE07107
:1034B000029801440398401A401E0390E00306D48A
:1034C00053462146179A039800F05CF80544139878
:1034D000007818B15246179990476D1CE00323D528
:1034E00053462146179A039800F04CF805441BE018
:1034F000BBF1000F07DB0098584504DD10981799C1
:1035000010F80B0001E017993020524690470198BF
:103510000BF1010B401E05F10105019004D12E2095
:103520005246179990476D1CB9F10001A9F10109A4
:10353000DEDC05E017F8010B5246179990476D1C29
:103540000299481E02900029F4DC53462146179A3E
:1035500003989EE62D0000002B00000020000000D4
:103560002DE9F041044600251E461746880404D480
:1035700005E039462020B0476D1C641EF9D5284669
:10358000BDE8F0812DE9F041044600251E46904635
:10359000C80301D5302700E02027880404D505E0C2
:1035A00041463846B0476D1C641EF9D52846BDE833
:1035B000F0814A68002A06D00A68531C0B6010701C
:1035C0004868401E486070470A68531C0B601070C2
:1035D000704742F6E06303E01946491E89B2FCD207
:1035E000401E80B2F8D270474FF4A060FEF7D2FAC6
:1035F0004FF47A7421464820FEF786FF64214FF489
:10360000E150FEF7D5FFFEF73DFCFDF789FBFEF725
:10361000E1F8FEF753F8FDF7FDF9FEF709FFFEF7B5
:10362000F5F84FF416552846FFF7AEF92846FFF790
:1036300009FAA346DFF878801E4FDFF87CA01F4D03
:103640001F4C204EDFF88090D8F800007968411AAE
:1036500059450ED3786038784FF40051C04310F0CC
:10366000FF003870194802D0FDF74BFF01E0FDF76D
:1036700046FFFDF74FFAFEF7E9F89AF8000098B117
:1036800029682068FDF714F804D0216829603068A3
:10369000FFF760FA99F80010484629B1002101703F
:1036A00021683068FFF756FA0120FFF793FACBE75D
:1036B0009000002000000020330000209400002033
:1036C00050000020840000208C00002000100140E9
:1036D00000000000000000000000000000000000EA
:1036E000000000F80000000000000033300000007F
:1036F00000160E00160E0000000000000000000082
:1037000040C07840C0784000043F04043F040400F7
:10371000007088FC08300000001820FF211E000007
:10372000F008F000E018000000211C031E211E001C
:1037300000F00888700000001E21232419272110A2
:10374000000000160E000000000000000000000055
:10375000000000E0180402000000000718204000EC
:1037600000020418E00000000040201807000000DC
:10377000404080F0804040000202010F0102020040
:10378000000000F0000000000101011F0101010024
:10379000000000000000000000B070000000000009
:1037A0000000000000000000000101010101010112
:1037B00000000000000000000030300000000000A9
:1037C000000000008060180400601806010000007E
:1037D00000E010080810E000000F102020100F007B
:1037E000001010F8000000000020203F2020000002
:1037F000007008080888700000302824222130005A
:1038000000300888884830000018202020110E0061
:103810000000C02010F8000000070424243F24000A
:1038200000F80888880808000019212020110E00DF
:1038300000E0108888180000000F112020110E00F1
:1038400000380808C83808000000003F00000000E9
:103850000070880808887000001C222121221C00AA
:1038600000E010080810E0000000312222110F00D3
:10387000000000C0C0000000000000303000000068
:10388000000000C0C0000000000080B07000000018
:1038900000008040201008000001020408102000F1
:1038A000404040404040400004040404040404003C
:1038B00000081020408000000020100804020100D1
:1038C000007048080808F0000000003036010000D1
:1038D000C030C828E810E0000718272423140B0084
:1038E0000000C038E0000000203C230202273820FE
:1038F00008F8888888700000203F202020110E00E2
:10390000C0300808080838000718202020100800D8
:1039100008F808080810E000203F202020100F00C1
:1039200008F88888E8081000203F2020232018008D
:1039300008F88888E8081000203F200003000000F5
:10394000C03008080838000007182020221E020096
:1039500008F808000008F808203F210101213F2055
:10396000000808F8080800000020203F2020000080
:1039700000000808F8080800C08080807F00000070
:1039800008F888C028180800203F200126382000A9
:1039900008F8080000000000203F20202020300010
:1039A00008F8F800F8F80800203F003F003F20002A
:1039B00008F830C00008F808203F200007183F0032
:1039C000E01008080810E0000F10202020100F0061
:1039D00008F808080808F000203F21010101000054
:1039E000E01008080810E0000F18242438504F0099
:1039F00008F8888888887000203F2000030C302059
:103A000000708808080838000038202121221C0096
:103A1000180808F8080818000000203F20000000DF
:103A200008F808000008F808001F202020201F00C8
:103A30000878880000C83808000007380E01000028
:103A4000F80800F80008F800033C0700073C0300F2
:103A5000081868808068180820302C03032C302058
:103A60000838C800C83808000000203F20000000C7
:103A700010080808C838080020382621202018001F
:103A8000000000FE020202000000007F40404000F3
:103A9000000C30C000000000000000010638C0002B
:103AA00000020202FE000000004040407F000000D3
:103AB0000020100804081020000000000000000092
:103AC00000000000000000008080808080808080F6
:103AD00000020408000000000000000000000000D8
:103AE00000008080808000000019242222223F20D4
:103AF00008F8008080000000003F112020110E0017
:103B00000000008080800000000E112020201100A5
:103B1000000000808088F800000E112020103F2057
:103B20000000808080800000001F222222221300DB
:103B3000008080F0888888180020203F2020000026
:103B40000000808080808000006B949494936000DB
:103B500008F8008080800000203F210000203F20E6
:103B600000809898000000000020203F20200000E6
:103B7000000000809898000000C08080807F0000D6
:103B800008F8000080808000203F24022D302000B3
:103B9000000808F8000000000020203F202000005E
:103BA0008080808080808000203F20003F20003F78
:103BB000008080008080000000203F2100203F2006
:103BC0000000808080800000001F202020201F0037
:103BD000808000808000000080FFA12020110E0066
:103BE0000000008080808000000E112020A0FF8057
:103BF000808080008080800020203F212000010004
:103C00000000808080808000003324242424190058
:103C1000008080E0808000000000001F2020000065
:103C20008080000000808000001F202020103F20A6
:103C3000808080000080808000010E300806010036
:103C400080800080008080800F300C030C300F00DB
:103C500000808000808080000020312E0E31200006
:103C6000808080000080808080818E701806010036
:103C700000808080808080000021302C2221300054
:103C800000000000807C020200000000003F404075
:103C900000000000FF00000000000000FF00000026
:103CA0000002027C800000000040403F0000000055
:103CB0000080404080000080000000000001010002
:103CC0000000000000000000002F000000000700BE
:103CD000070000147F147F1400242A7F2A12002377
:103CE00013086462003649552250000000070000A6
:103CF00000001C224100000041221C000014083E6C
:103D000008140008083E0808000000A06000000831
:103D10000808080800006060000000201008040285
:103D2000003E5149453E0000427F40000042615143
:103D30004946002141454B31001814127F100027DD
:103D400045454539003C4A494930000171090503A0
:103D500000364949493600064949291E00003636D1
:103D60000000000056360000000814224100001434
:103D70001414141400004122140800020151090611
:103D8000003E4955592E007C1211127C007F494992
:103D90004936003E41414122007F4141221C007FC3
:103DA00049494941007F09090901003E4149497AD1
:103DB000007F0808087F0000417F4100002040414B
:103DC0003F01007F08142241007F40404040007FB7
:103DD000020C027F007F0408107F003E4141413EFB
:103DE000007F09090906003E4151215E007F091943
:103DF00029460046494949310001017F0101003F40
:103E00004040403F001F2040201F003F4038403FBF
:103E10000063140814630007087008070061514923
:103E2000454300007F4141000002040810200000CB
:103E300041417F0000040201020400404040404034
:103E4000000001020400002054545478007F4844CC
:103E5000443800384444442000384444487F003803
:103E60005454541800087E0901020018A4A4A47C2C
:103E7000007F080404780000447D400000408084F6
:103E80007D00007F102844000000417F4000007C3E
:103E900004180478007C080404780038444444384A
:103EA00000FC242424180018242418FC007C080496
:103EB000040800485454542000043F444020003C6F
:103EC0004040207C001C2040201C003C4030403CF6
:103ED000004428102844001CA0A0A07C0044645486
:103EE0004C440000087F41000000007F00000000FB
:103EF000417F0800000804081008A3AC000000007F
:103F00000000000000000000000000000000005859
:103F100038000000000000000000000000A1A30025
:103F20000000000000000000000000000000000091
:103F30000000182424180000000000000000000009
:103F4000C4E300008060F8074020180F08C8080884
:103F5000281800010000FF00100C0340807F0001C2
:103F6000061800BAC3001010F01F10F00080828203
:103F7000E2928A8680004022150816610000408087
:103F80007F0000000000CAC000202020FE2020FF8B
:103F9000202020FF20202020000000007F404047FC
:103FA000444444474040400000BDE700000000FE9C
:103FB000929292FE929292FE000000000808048401
:103FC000621E010001FE020404080800BFF30004A1
:103FD00084E45C44C40000F808090E0808080002E4
:103FE000017F10103F80601F00000000000000BE35
:103FF000AE0000101010FF1010101010FF10101065
:104000000000028242320F0202020202FF0202029A
:104010000200BBB700048484FC848400040484E4AC
:104020001C840404002060201F101004020100FF03
:104030000000010600BEB3001010FF101020A4AC59
:10404000B5A6B4ACA420200010301F0888804F3AD9
:104050000A0A7A8A8F80E000CAFD0090523410FF6D
:1040600010345280708F0808F80800829A56632234
:10407000528E008040330C33408000BEDD001010B3
:10408000FF109000FE929292F292929E80004282E5
:104090007F0180601F00FC44474444FC0000A3BA39
:1040A0000000000000000000000000000000000010
:1040B0000000003636000000000000000000000094
:1040C00000CEC2001060028C0000FE92929292928A
:1040D000FE00000004047E01407E42427E427E4299
:1040E000427E4000CAAA001060028C00FE929292AA
:1040F000929292FE00000004047E014448507F40EA
:10410000407F5048444000B6C8000000FC242424EE
:10411000FC252624FC242424040040308F80844C79
:1041200055252525554C80808000000000FF0101A9
:10413000013109090909897101010101FFFF80802D
:10414000808080809681808080808080FF01030253
:1041500006040C0809000000784100080000002057
:10416000A0000000082D000818420008A000002050
:10417000100B0000182D00080000000000000000D7
:104180000204060800000000010203040102030407
:1041900006070809000001000A00000000000000F6
:1041A000000000000000000002000001000000000C
:1041B00000010000000000000200000000000042BA
:1041C00000007041000000410000D84100000000E4
:1041D00000000000000000000000000000000000DF
:1041E00000000000000000000000000000000000CF
:1041F00000000000000000000000000000000000BF
:104200000000000000000000000000000000D84195
:084210000000000000000000A6
:0400000508000131BD
:00000001FF
